{
  "_format": "hh-sol-artifact-1",
  "contractName": "Mominter",
  "sourceName": "contracts/Mominter.sol",
  "abi": [
    {
      "inputs": [],
      "stateMutability": "nonpayable",
      "type": "constructor"
    },
    {
      "anonymous": false,
      "inputs": [
        {
          "indexed": true,
          "internalType": "address",
          "name": "owner",
          "type": "address"
        },
        {
          "indexed": true,
          "internalType": "address",
          "name": "approved",
          "type": "address"
        },
        {
          "indexed": true,
          "internalType": "uint256",
          "name": "tokenId",
          "type": "uint256"
        }
      ],
      "name": "Approval",
      "type": "event"
    },
    {
      "anonymous": false,
      "inputs": [
        {
          "indexed": true,
          "internalType": "address",
          "name": "owner",
          "type": "address"
        },
        {
          "indexed": true,
          "internalType": "address",
          "name": "operator",
          "type": "address"
        },
        {
          "indexed": false,
          "internalType": "bool",
          "name": "approved",
          "type": "bool"
        }
      ],
      "name": "ApprovalForAll",
      "type": "event"
    },
    {
      "anonymous": false,
      "inputs": [
        {
          "indexed": false,
          "internalType": "uint256",
          "name": "_fromTokenId",
          "type": "uint256"
        },
        {
          "indexed": false,
          "internalType": "uint256",
          "name": "_toTokenId",
          "type": "uint256"
        }
      ],
      "name": "BatchMetadataUpdate",
      "type": "event"
    },
    {
      "anonymous": false,
      "inputs": [
        {
          "indexed": false,
          "internalType": "uint256",
          "name": "_tokenId",
          "type": "uint256"
        }
      ],
      "name": "MetadataUpdate",
      "type": "event"
    },
    {
      "anonymous": false,
      "inputs": [
        {
          "indexed": false,
          "internalType": "address",
          "name": "account",
          "type": "address"
        }
      ],
      "name": "MonthlyPaymentMade",
      "type": "event"
    },
    {
      "anonymous": false,
      "inputs": [
        {
          "indexed": true,
          "internalType": "uint256",
          "name": "tokenId",
          "type": "uint256"
        },
        {
          "indexed": false,
          "internalType": "address",
          "name": "owner",
          "type": "address"
        },
        {
          "indexed": false,
          "internalType": "address",
          "name": "storageDrive",
          "type": "address"
        },
        {
          "indexed": false,
          "internalType": "uint256",
          "name": "dateCreated",
          "type": "uint256"
        },
        {
          "indexed": false,
          "internalType": "bool",
          "name": "shared",
          "type": "bool"
        }
      ],
      "name": "StorageItemCreated",
      "type": "event"
    },
    {
      "anonymous": false,
      "inputs": [
        {
          "indexed": false,
          "internalType": "address",
          "name": "account",
          "type": "address"
        }
      ],
      "name": "SubscriptionMade",
      "type": "event"
    },
    {
      "anonymous": false,
      "inputs": [
        {
          "indexed": true,
          "internalType": "uint256",
          "name": "tId",
          "type": "uint256"
        },
        {
          "indexed": false,
          "internalType": "uint256",
          "name": "tokenId",
          "type": "uint256"
        },
        {
          "indexed": false,
          "internalType": "address",
          "name": "sender",
          "type": "address"
        },
        {
          "indexed": false,
          "internalType": "uint256",
          "name": "amount",
          "type": "uint256"
        },
        {
          "indexed": false,
          "internalType": "uint256",
          "name": "commi",
          "type": "uint256"
        }
      ],
      "name": "TipCreated",
      "type": "event"
    },
    {
      "anonymous": false,
      "inputs": [
        {
          "indexed": true,
          "internalType": "address",
          "name": "from",
          "type": "address"
        },
        {
          "indexed": true,
          "internalType": "address",
          "name": "to",
          "type": "address"
        },
        {
          "indexed": true,
          "internalType": "uint256",
          "name": "tokenId",
          "type": "uint256"
        }
      ],
      "name": "Transfer",
      "type": "event"
    },
    {
      "anonymous": false,
      "inputs": [
        {
          "indexed": true,
          "internalType": "uint256",
          "name": "vId",
          "type": "uint256"
        },
        {
          "indexed": false,
          "internalType": "uint256",
          "name": "tokenId",
          "type": "uint256"
        },
        {
          "indexed": false,
          "internalType": "address",
          "name": "visitor",
          "type": "address"
        }
      ],
      "name": "ViewItemCreated",
      "type": "event"
    },
    {
      "stateMutability": "payable",
      "type": "fallback"
    },
    {
      "inputs": [],
      "name": "_tipIds",
      "outputs": [
        {
          "internalType": "uint256",
          "name": "_value",
          "type": "uint256"
        }
      ],
      "stateMutability": "view",
      "type": "function"
    },
    {
      "inputs": [],
      "name": "_tokenIds",
      "outputs": [
        {
          "internalType": "uint256",
          "name": "_value",
          "type": "uint256"
        }
      ],
      "stateMutability": "view",
      "type": "function"
    },
    {
      "inputs": [],
      "name": "_viewIds",
      "outputs": [
        {
          "internalType": "uint256",
          "name": "_value",
          "type": "uint256"
        }
      ],
      "stateMutability": "view",
      "type": "function"
    },
    {
      "inputs": [
        {
          "internalType": "address",
          "name": "to",
          "type": "address"
        },
        {
          "internalType": "uint256",
          "name": "tokenId",
          "type": "uint256"
        }
      ],
      "name": "approve",
      "outputs": [],
      "stateMutability": "nonpayable",
      "type": "function"
    },
    {
      "inputs": [
        {
          "internalType": "address",
          "name": "owner",
          "type": "address"
        }
      ],
      "name": "balanceOf",
      "outputs": [
        {
          "internalType": "uint256",
          "name": "",
          "type": "uint256"
        }
      ],
      "stateMutability": "view",
      "type": "function"
    },
    {
      "inputs": [
        {
          "internalType": "string",
          "name": "tokenURI",
          "type": "string"
        }
      ],
      "name": "createFile",
      "outputs": [
        {
          "internalType": "uint256",
          "name": "",
          "type": "uint256"
        }
      ],
      "stateMutability": "payable",
      "type": "function"
    },
    {
      "inputs": [
        {
          "internalType": "uint256",
          "name": "tokenId",
          "type": "uint256"
        }
      ],
      "name": "createViewItem",
      "outputs": [],
      "stateMutability": "nonpayable",
      "type": "function"
    },
    {
      "inputs": [],
      "name": "fetchAllStorageItems",
      "outputs": [
        {
          "components": [
            {
              "internalType": "uint256",
              "name": "tokenId",
              "type": "uint256"
            },
            {
              "internalType": "address",
              "name": "owner",
              "type": "address"
            },
            {
              "internalType": "address",
              "name": "storageDrive",
              "type": "address"
            },
            {
              "internalType": "uint256",
              "name": "dateCreated",
              "type": "uint256"
            },
            {
              "internalType": "bool",
              "name": "shared",
              "type": "bool"
            }
          ],
          "internalType": "struct Mominter.StorageItem[]",
          "name": "",
          "type": "tuple[]"
        }
      ],
      "stateMutability": "view",
      "type": "function"
    },
    {
      "inputs": [],
      "name": "fetchMyFiles",
      "outputs": [
        {
          "components": [
            {
              "internalType": "uint256",
              "name": "tokenId",
              "type": "uint256"
            },
            {
              "internalType": "address",
              "name": "owner",
              "type": "address"
            },
            {
              "internalType": "address",
              "name": "storageDrive",
              "type": "address"
            },
            {
              "internalType": "uint256",
              "name": "dateCreated",
              "type": "uint256"
            },
            {
              "internalType": "bool",
              "name": "shared",
              "type": "bool"
            }
          ],
          "internalType": "struct Mominter.StorageItem[]",
          "name": "",
          "type": "tuple[]"
        }
      ],
      "stateMutability": "view",
      "type": "function"
    },
    {
      "inputs": [
        {
          "internalType": "uint256",
          "name": "_tokenId",
          "type": "uint256"
        }
      ],
      "name": "fetchOneNews",
      "outputs": [
        {
          "components": [
            {
              "internalType": "uint256",
              "name": "tokenId",
              "type": "uint256"
            },
            {
              "internalType": "address",
              "name": "owner",
              "type": "address"
            },
            {
              "internalType": "address",
              "name": "storageDrive",
              "type": "address"
            },
            {
              "internalType": "uint256",
              "name": "dateCreated",
              "type": "uint256"
            },
            {
              "internalType": "bool",
              "name": "shared",
              "type": "bool"
            }
          ],
          "internalType": "struct Mominter.StorageItem[]",
          "name": "",
          "type": "tuple[]"
        }
      ],
      "stateMutability": "view",
      "type": "function"
    },
    {
      "inputs": [
        {
          "internalType": "uint256",
          "name": "_tokenId",
          "type": "uint256"
        }
      ],
      "name": "fetchViews",
      "outputs": [
        {
          "internalType": "uint256",
          "name": "",
          "type": "uint256"
        }
      ],
      "stateMutability": "view",
      "type": "function"
    },
    {
      "inputs": [
        {
          "internalType": "uint256",
          "name": "tokenId",
          "type": "uint256"
        }
      ],
      "name": "getApproved",
      "outputs": [
        {
          "internalType": "address",
          "name": "",
          "type": "address"
        }
      ],
      "stateMutability": "view",
      "type": "function"
    },
    {
      "inputs": [
        {
          "internalType": "address",
          "name": "owner",
          "type": "address"
        },
        {
          "internalType": "address",
          "name": "operator",
          "type": "address"
        }
      ],
      "name": "isApprovedForAll",
      "outputs": [
        {
          "internalType": "bool",
          "name": "",
          "type": "bool"
        }
      ],
      "stateMutability": "view",
      "type": "function"
    },
    {
      "inputs": [],
      "name": "name",
      "outputs": [
        {
          "internalType": "string",
          "name": "",
          "type": "string"
        }
      ],
      "stateMutability": "view",
      "type": "function"
    },
    {
      "inputs": [
        {
          "internalType": "uint256",
          "name": "tokenId",
          "type": "uint256"
        }
      ],
      "name": "ownerOf",
      "outputs": [
        {
          "internalType": "address",
          "name": "",
          "type": "address"
        }
      ],
      "stateMutability": "view",
      "type": "function"
    },
    {
      "inputs": [],
      "name": "payMonthlyValue",
      "outputs": [],
      "stateMutability": "payable",
      "type": "function"
    },
    {
      "inputs": [
        {
          "internalType": "address",
          "name": "from",
          "type": "address"
        },
        {
          "internalType": "address",
          "name": "to",
          "type": "address"
        },
        {
          "internalType": "uint256",
          "name": "tokenId",
          "type": "uint256"
        }
      ],
      "name": "safeTransferFrom",
      "outputs": [],
      "stateMutability": "nonpayable",
      "type": "function"
    },
    {
      "inputs": [
        {
          "internalType": "address",
          "name": "from",
          "type": "address"
        },
        {
          "internalType": "address",
          "name": "to",
          "type": "address"
        },
        {
          "internalType": "uint256",
          "name": "tokenId",
          "type": "uint256"
        },
        {
          "internalType": "bytes",
          "name": "data",
          "type": "bytes"
        }
      ],
      "name": "safeTransferFrom",
      "outputs": [],
      "stateMutability": "nonpayable",
      "type": "function"
    },
    {
      "inputs": [
        {
          "internalType": "address",
          "name": "operator",
          "type": "address"
        },
        {
          "internalType": "bool",
          "name": "approved",
          "type": "bool"
        }
      ],
      "name": "setApprovalForAll",
      "outputs": [],
      "stateMutability": "nonpayable",
      "type": "function"
    },
    {
      "inputs": [],
      "name": "subscribe",
      "outputs": [],
      "stateMutability": "payable",
      "type": "function"
    },
    {
      "inputs": [
        {
          "internalType": "bytes4",
          "name": "interfaceId",
          "type": "bytes4"
        }
      ],
      "name": "supportsInterface",
      "outputs": [
        {
          "internalType": "bool",
          "name": "",
          "type": "bool"
        }
      ],
      "stateMutability": "view",
      "type": "function"
    },
    {
      "inputs": [],
      "name": "symbol",
      "outputs": [
        {
          "internalType": "string",
          "name": "",
          "type": "string"
        }
      ],
      "stateMutability": "view",
      "type": "function"
    },
    {
      "inputs": [
        {
          "internalType": "uint256",
          "name": "tokenId",
          "type": "uint256"
        }
      ],
      "name": "tipCreator",
      "outputs": [],
      "stateMutability": "payable",
      "type": "function"
    },
    {
      "inputs": [
        {
          "internalType": "uint256",
          "name": "tokenId",
          "type": "uint256"
        }
      ],
      "name": "tokenURI",
      "outputs": [
        {
          "internalType": "string",
          "name": "",
          "type": "string"
        }
      ],
      "stateMutability": "view",
      "type": "function"
    },
    {
      "inputs": [
        {
          "internalType": "address",
          "name": "from",
          "type": "address"
        },
        {
          "internalType": "address",
          "name": "to",
          "type": "address"
        },
        {
          "internalType": "uint256",
          "name": "tokenId",
          "type": "uint256"
        }
      ],
      "name": "transferFrom",
      "outputs": [],
      "stateMutability": "nonpayable",
      "type": "function"
    },
    {
      "inputs": [
        {
          "internalType": "uint256",
          "name": "value",
          "type": "uint256"
        }
      ],
      "name": "withdraw",
      "outputs": [],
      "stateMutability": "nonpayable",
      "type": "function"
    },
    {
      "stateMutability": "payable",
      "type": "receive"
    }
  ],
  "bytecode": "0x608060405267016345785d8a0000600d553480156200001d57600080fd5b506040518060400160405280600881526020017f4d6f6d696e7465720000000000000000000000000000000000000000000000008152506040518060400160405280600881526020017f4d6f6d696e74657200000000000000000000000000000000000000000000000081525081600090816200009b919062000371565b508060019081620000ad919062000371565b50505033600c60006101000a81548173ffffffffffffffffffffffffffffffffffffffff021916908373ffffffffffffffffffffffffffffffffffffffff16021790555062000458565b600081519050919050565b7f4e487b7100000000000000000000000000000000000000000000000000000000600052604160045260246000fd5b7f4e487b7100000000000000000000000000000000000000000000000000000000600052602260045260246000fd5b600060028204905060018216806200017957607f821691505b6020821081036200018f576200018e62000131565b5b50919050565b60008190508160005260206000209050919050565b60006020601f8301049050919050565b600082821b905092915050565b600060088302620001f97fffffffffffffffffffffffffffffffffffffffffffffffffffffffffffffffff82620001ba565b620002058683620001ba565b95508019841693508086168417925050509392505050565b6000819050919050565b6000819050919050565b6000620002526200024c62000246846200021d565b62000227565b6200021d565b9050919050565b6000819050919050565b6200026e8362000231565b620002866200027d8262000259565b848454620001c7565b825550505050565b600090565b6200029d6200028e565b620002aa81848462000263565b505050565b5b81811015620002d257620002c660008262000293565b600181019050620002b0565b5050565b601f8211156200032157620002eb8162000195565b620002f684620001aa565b8101602085101562000306578190505b6200031e6200031585620001aa565b830182620002af565b50505b505050565b600082821c905092915050565b6000620003466000198460080262000326565b1980831691505092915050565b600062000361838362000333565b9150826002028217905092915050565b6200037c82620000f7565b67ffffffffffffffff81111562000398576200039762000102565b5b620003a4825462000160565b620003b1828285620002d6565b600060209050601f831160018114620003e95760008415620003d4578287015190505b620003e0858262000353565b86555062000450565b601f198416620003f98662000195565b60005b828110156200042357848901518255600182019150602085019450602081019050620003fc565b868310156200044357848901516200043f601f89168262000333565b8355505b6001600288020188555050505b505050505050565b61455680620004686000396000f3fe6080604052600436106101855760003560e01c806370a08231116100d1578063b0b441061161008a578063c87b56dd11610064578063c87b56dd14610552578063e5a027651461058f578063e985e9c5146105ba578063fef6b327146105f75761018c565b8063b0b44106146104d0578063b88d4fde1461050d578063b97be95e146105365761018c565b806370a08231146103df5780638f449a051461041c578063957b5ba31461042657806395d89b4114610451578063a22cb4651461047c578063aa46a400146104a55761018c565b80632e1a7d4d1161013e5780633c8f2823116101185780633c8f28231461032057806342842e0e146103495780634dfdc4fb146103725780636352211e146103a25761018c565b80632e1a7d4d146102c2578063347cfeab146102eb57806337a89986146102f55761018c565b806301ffc9a71461018e57806306fdde03146101cb578063081812fc146101f6578063095ea7b31461023357806323b872dd1461025c57806325609d91146102855761018c565b3661018c57005b005b34801561019a57600080fd5b506101b560048036038101906101b09190612e2b565b610622565b6040516101c29190612e73565b60405180910390f35b3480156101d757600080fd5b506101e0610683565b6040516101ed9190612f1e565b60405180910390f35b34801561020257600080fd5b5061021d60048036038101906102189190612f76565b610715565b60405161022a9190612fe4565b60405180910390f35b34801561023f57600080fd5b5061025a6004803603810190610255919061302b565b61075b565b005b34801561026857600080fd5b50610283600480360381019061027e919061306b565b610872565b005b34801561029157600080fd5b506102ac60048036038101906102a79190612f76565b6108d2565b6040516102b99190613202565b60405180910390f35b3480156102ce57600080fd5b506102e960048036038101906102e49190612f76565b610b28565b005b6102f3610ccd565b005b34801561030157600080fd5b5061030a610dd6565b6040516103179190613202565b60405180910390f35b34801561032c57600080fd5b5061034760048036038101906103429190612f76565b61101b565b005b34801561035557600080fd5b50610370600480360381019061036b919061306b565b611113565b005b61038c60048036038101906103879190613359565b611133565b60405161039991906133b1565b60405180910390f35b3480156103ae57600080fd5b506103c960048036038101906103c49190612f76565b611173565b6040516103d69190612fe4565b60405180910390f35b3480156103eb57600080fd5b50610406600480360381019061040191906133cc565b6111f9565b60405161041391906133b1565b60405180910390f35b6104246112b0565b005b34801561043257600080fd5b5061043b6113ce565b6040516104489190613202565b60405180910390f35b34801561045d57600080fd5b506104666116ba565b6040516104739190612f1e565b60405180910390f35b34801561048857600080fd5b506104a3600480360381019061049e9190613425565b61174c565b005b3480156104b157600080fd5b506104ba611762565b6040516104c791906133b1565b60405180910390f35b3480156104dc57600080fd5b506104f760048036038101906104f29190612f76565b61176e565b60405161050491906133b1565b60405180910390f35b34801561051957600080fd5b50610534600480360381019061052f9190613506565b6117e0565b005b610550600480360381019061054b9190612f76565b611842565b005b34801561055e57600080fd5b5061057960048036038101906105749190612f76565b611a08565b6040516105869190612f1e565b60405180910390f35b34801561059b57600080fd5b506105a4611b1a565b6040516105b191906133b1565b60405180910390f35b3480156105c657600080fd5b506105e160048036038101906105dc9190613589565b611b26565b6040516105ee9190612e73565b60405180910390f35b34801561060357600080fd5b5061060c611bba565b60405161061991906133b1565b60405180910390f35b6000634906490660e01b7bffffffffffffffffffffffffffffffffffffffffffffffffffffffff1916827bffffffffffffffffffffffffffffffffffffffffffffffffffffffff1916148061067c575061067b82611bc6565b5b9050919050565b606060008054610692906135f8565b80601f01602080910402602001604051908101604052809291908181526020018280546106be906135f8565b801561070b5780601f106106e05761010080835404028352916020019161070b565b820191906000526020600020905b8154815290600101906020018083116106ee57829003601f168201915b5050505050905090565b600061072082611ca8565b6004600083815260200190815260200160002060009054906101000a900473ffffffffffffffffffffffffffffffffffffffff169050919050565b600061076682611173565b90508073ffffffffffffffffffffffffffffffffffffffff168373ffffffffffffffffffffffffffffffffffffffff16036107d6576040517f08c379a00000000000000000000000000000000000000000000000000000000081526004016107cd9061369b565b60405180910390fd5b8073ffffffffffffffffffffffffffffffffffffffff166107f5611cf3565b73ffffffffffffffffffffffffffffffffffffffff16148061082457506108238161081e611cf3565b611b26565b5b610863576040517f08c379a000000000000000000000000000000000000000000000000000000000815260040161085a9061372d565b60405180910390fd5b61086d8383611cfb565b505050565b61088361087d611cf3565b82611db4565b6108c2576040517f08c379a00000000000000000000000000000000000000000000000000000000081526004016108b9906137bf565b60405180910390fd5b6108cd838383611e49565b505050565b606060006108e06007612142565b905060008060005b8381101561093c5785600f6000600184610902919061380e565b8152602001908152602001600020600001540361092957600183610926919061380e565b92505b808061093490613842565b9150506108e8565b5060008267ffffffffffffffff8111156109595761095861322e565b5b60405190808252806020026020018201604052801561099257816020015b61097f612d62565b8152602001906001900390816109775790505b50905060005b84811015610b1b5786600f60006001846109b2919061380e565b81526020019081526020016000206000015403610b085760006001826109d8919061380e565b90506000600f60008381526020019081526020016000209050806040518060a0016040529081600082015481526020016001820160009054906101000a900473ffffffffffffffffffffffffffffffffffffffff1673ffffffffffffffffffffffffffffffffffffffff1673ffffffffffffffffffffffffffffffffffffffff1681526020016002820160009054906101000a900473ffffffffffffffffffffffffffffffffffffffff1673ffffffffffffffffffffffffffffffffffffffff1673ffffffffffffffffffffffffffffffffffffffff168152602001600382015481526020016004820160009054906101000a900460ff161515151581525050848681518110610aeb57610aea61388a565b5b6020026020010181905250600185610b03919061380e565b945050505b8080610b1390613842565b915050610998565b5080945050505050919050565b600c60009054906101000a900473ffffffffffffffffffffffffffffffffffffffff1673ffffffffffffffffffffffffffffffffffffffff163373ffffffffffffffffffffffffffffffffffffffff1614610bb8576040517f08c379a0000000000000000000000000000000000000000000000000000000008152600401610baf90613905565b60405180910390fd5b47811115610bfb576040517f08c379a0000000000000000000000000000000000000000000000000000000008152600401610bf290613971565b60405180910390fd5b6000600c60009054906101000a900473ffffffffffffffffffffffffffffffffffffffff1673ffffffffffffffffffffffffffffffffffffffff1682604051610c43906139c2565b60006040518083038185875af1925050503d8060008114610c80576040519150601f19603f3d011682016040523d82523d6000602084013e610c85565b606091505b5050905080610cc9576040517f08c379a0000000000000000000000000000000000000000000000000000000008152600401610cc090613a23565b60405180910390fd5b5050565b600e60003373ffffffffffffffffffffffffffffffffffffffff1673ffffffffffffffffffffffffffffffffffffffff16815260200190815260200160002060009054906101000a900460ff16610d59576040517f08c379a0000000000000000000000000000000000000000000000000000000008152600401610d5090613a8f565b60405180910390fd5b600b543414610d9d576040517f08c379a0000000000000000000000000000000000000000000000000000000008152600401610d9490613afb565b60405180910390fd5b7f342391d881b260faba344bcdceb81718335063790ef64b017dfe1fbec5eb7d9133604051610dcc9190612fe4565b60405180910390a1565b60606000610de46007612142565b90506000808267ffffffffffffffff811115610e0357610e0261322e565b5b604051908082528060200260200182016040528015610e3c57816020015b610e29612d62565b815260200190600190039081610e215790505b50905060005b83811015611011573073ffffffffffffffffffffffffffffffffffffffff16600f6000600184610e72919061380e565b815260200190815260200160002060020160009054906101000a900473ffffffffffffffffffffffffffffffffffffffff1673ffffffffffffffffffffffffffffffffffffffff1603610ffe576000600182610ece919061380e565b90506000600f60008381526020019081526020016000209050806040518060a0016040529081600082015481526020016001820160009054906101000a900473ffffffffffffffffffffffffffffffffffffffff1673ffffffffffffffffffffffffffffffffffffffff1673ffffffffffffffffffffffffffffffffffffffff1681526020016002820160009054906101000a900473ffffffffffffffffffffffffffffffffffffffff1673ffffffffffffffffffffffffffffffffffffffff1673ffffffffffffffffffffffffffffffffffffffff168152602001600382015481526020016004820160009054906101000a900460ff161515151581525050848681518110610fe157610fe061388a565b5b6020026020010181905250600185610ff9919061380e565b945050505b808061100990613842565b915050610e42565b5080935050505090565b6110256009612150565b60006110316009612142565b905060405180606001604052808281526020018381526020013373ffffffffffffffffffffffffffffffffffffffff1681525060106000838152602001908152602001600020600082015181600001556020820151816001015560408201518160020160006101000a81548173ffffffffffffffffffffffffffffffffffffffff021916908373ffffffffffffffffffffffffffffffffffffffff160217905550905050807f76eeab97092ad834df0b561eae45cd54f5583ebef4240be2483d115d9fb4ed618333604051611107929190613b1b565b60405180910390a25050565b61112e838383604051806020016040528060008152506117e0565b505050565b600061113f6007612150565b600061114b6007612142565b90506111573382612166565b6111618184612383565b61116a81612427565b80915050919050565b60008061117f836125a2565b9050600073ffffffffffffffffffffffffffffffffffffffff168173ffffffffffffffffffffffffffffffffffffffff16036111f0576040517f08c379a00000000000000000000000000000000000000000000000000000000081526004016111e790613b90565b60405180910390fd5b80915050919050565b60008073ffffffffffffffffffffffffffffffffffffffff168273ffffffffffffffffffffffffffffffffffffffff1603611269576040517f08c379a000000000000000000000000000000000000000000000000000000000815260040161126090613c22565b60405180910390fd5b600360008373ffffffffffffffffffffffffffffffffffffffff1673ffffffffffffffffffffffffffffffffffffffff168152602001908152602001600020549050919050565b600e60003373ffffffffffffffffffffffffffffffffffffffff1673ffffffffffffffffffffffffffffffffffffffff16815260200190815260200160002060009054906101000a900460ff161561133d576040517f08c379a000000000000000000000000000000000000000000000000000000000815260040161133490613c8e565b60405180910390fd5b6001600e60003373ffffffffffffffffffffffffffffffffffffffff1673ffffffffffffffffffffffffffffffffffffffff16815260200190815260200160002060006101000a81548160ff0219169083151502179055507f0a4aaad73235c04f36913f1a722df062186fab3d31654a6d28265e505d9e1613336040516113c49190612fe4565b60405180910390a1565b606060006113dc6007612142565b905060008060005b83811015611484573373ffffffffffffffffffffffffffffffffffffffff16600f6000600184611414919061380e565b815260200190815260200160002060010160009054906101000a900473ffffffffffffffffffffffffffffffffffffffff1673ffffffffffffffffffffffffffffffffffffffff16036114715760018361146e919061380e565b92505b808061147c90613842565b9150506113e4565b5060008267ffffffffffffffff8111156114a1576114a061322e565b5b6040519080825280602002602001820160405280156114da57816020015b6114c7612d62565b8152602001906001900390816114bf5790505b50905060005b848110156116af573373ffffffffffffffffffffffffffffffffffffffff16600f6000600184611510919061380e565b815260200190815260200160002060010160009054906101000a900473ffffffffffffffffffffffffffffffffffffffff1673ffffffffffffffffffffffffffffffffffffffff160361169c57600060018261156c919061380e565b90506000600f60008381526020019081526020016000209050806040518060a0016040529081600082015481526020016001820160009054906101000a900473ffffffffffffffffffffffffffffffffffffffff1673ffffffffffffffffffffffffffffffffffffffff1673ffffffffffffffffffffffffffffffffffffffff1681526020016002820160009054906101000a900473ffffffffffffffffffffffffffffffffffffffff1673ffffffffffffffffffffffffffffffffffffffff1673ffffffffffffffffffffffffffffffffffffffff168152602001600382015481526020016004820160009054906101000a900460ff16151515158152505084868151811061167f5761167e61388a565b5b6020026020010181905250600185611697919061380e565b945050505b80806116a790613842565b9150506114e0565b508094505050505090565b6060600180546116c9906135f8565b80601f01602080910402602001604051908101604052809291908181526020018280546116f5906135f8565b80156117425780601f1061171757610100808354040283529160200191611742565b820191906000526020600020905b81548152906001019060200180831161172557829003601f168201915b5050505050905090565b61175e611757611cf3565b83836125df565b5050565b60078060000154905081565b60008061177b6009612142565b90506000805b828110156117d557846010600060018461179b919061380e565b815260200190815260200160002060010154036117c2576001826117bf919061380e565b91505b80806117cd90613842565b915050611781565b508092505050919050565b6117f16117eb611cf3565b83611db4565b611830576040517f08c379a0000000000000000000000000000000000000000000000000000000008152600401611827906137bf565b60405180910390fd5b61183c8484848461274b565b50505050565b61184c600a612150565b6000341161188f576040517f08c379a000000000000000000000000000000000000000000000000000000000815260040161188690613cfa565b60405180910390fd5b611898346127a7565b6000600f600083815260200190815260200160002060010160009054906101000a900473ffffffffffffffffffffffffffffffffffffffff1690506000600f600084815260200190815260200160002060020160009054906101000a900473ffffffffffffffffffffffffffffffffffffffff169050600034905061191c816127a7565b600034905061192a816127a7565b8273ffffffffffffffffffffffffffffffffffffffff166108fc839081150290604051600060405180830381858888f19350505050158015611970573d6000803e3d6000fd5b508373ffffffffffffffffffffffffffffffffffffffff166108fc829081150290604051600060405180830381858888f193505050501580156119b7573d6000803e3d6000fd5b506119c2600a612142565b7fc719efa4830ac729ad6df722c994d3f27ed3bbef9950bb8a10da38bb5cd9e46e863384600d546040516119f99493929190613d1a565b60405180910390a25050505050565b6060611a1382611ca8565b6000600660008481526020019081526020016000208054611a33906135f8565b80601f0160208091040260200160405190810160405280929190818152602001828054611a5f906135f8565b8015611aac5780601f10611a8157610100808354040283529160200191611aac565b820191906000526020600020905b815481529060010190602001808311611a8f57829003601f168201915b505050505090506000611abd612840565b90506000815103611ad2578192505050611b15565b600082511115611b07578082604051602001611aef929190613d9b565b60405160208183030381529060405292505050611b15565b611b1084612857565b925050505b919050565b600a8060000154905081565b6000600560008473ffffffffffffffffffffffffffffffffffffffff1673ffffffffffffffffffffffffffffffffffffffff16815260200190815260200160002060008373ffffffffffffffffffffffffffffffffffffffff1673ffffffffffffffffffffffffffffffffffffffff16815260200190815260200160002060009054906101000a900460ff16905092915050565b60098060000154905081565b60007f80ac58cd000000000000000000000000000000000000000000000000000000007bffffffffffffffffffffffffffffffffffffffffffffffffffffffff1916827bffffffffffffffffffffffffffffffffffffffffffffffffffffffff19161480611c9157507f5b5e139f000000000000000000000000000000000000000000000000000000007bffffffffffffffffffffffffffffffffffffffffffffffffffffffff1916827bffffffffffffffffffffffffffffffffffffffffffffffffffffffff1916145b80611ca15750611ca0826128bf565b5b9050919050565b611cb181612929565b611cf0576040517f08c379a0000000000000000000000000000000000000000000000000000000008152600401611ce790613b90565b60405180910390fd5b50565b600033905090565b816004600083815260200190815260200160002060006101000a81548173ffffffffffffffffffffffffffffffffffffffff021916908373ffffffffffffffffffffffffffffffffffffffff160217905550808273ffffffffffffffffffffffffffffffffffffffff16611d6e83611173565b73ffffffffffffffffffffffffffffffffffffffff167f8c5be1e5ebec7d5bd14f71427d1e84f3dd0314c0f7b2291e5b200ac8c7c3b92560405160405180910390a45050565b600080611dc083611173565b90508073ffffffffffffffffffffffffffffffffffffffff168473ffffffffffffffffffffffffffffffffffffffff161480611e025750611e018185611b26565b5b80611e4057508373ffffffffffffffffffffffffffffffffffffffff16611e2884610715565b73ffffffffffffffffffffffffffffffffffffffff16145b91505092915050565b8273ffffffffffffffffffffffffffffffffffffffff16611e6982611173565b73ffffffffffffffffffffffffffffffffffffffff1614611ebf576040517f08c379a0000000000000000000000000000000000000000000000000000000008152600401611eb690613e31565b60405180910390fd5b600073ffffffffffffffffffffffffffffffffffffffff168273ffffffffffffffffffffffffffffffffffffffff1603611f2e576040517f08c379a0000000000000000000000000000000000000000000000000000000008152600401611f2590613ec3565b60405180910390fd5b611f3b838383600161296a565b8273ffffffffffffffffffffffffffffffffffffffff16611f5b82611173565b73ffffffffffffffffffffffffffffffffffffffff1614611fb1576040517f08c379a0000000000000000000000000000000000000000000000000000000008152600401611fa890613e31565b60405180910390fd5b6004600082815260200190815260200160002060006101000a81549073ffffffffffffffffffffffffffffffffffffffff02191690556001600360008573ffffffffffffffffffffffffffffffffffffffff1673ffffffffffffffffffffffffffffffffffffffff168152602001908152602001600020600082825403925050819055506001600360008473ffffffffffffffffffffffffffffffffffffffff1673ffffffffffffffffffffffffffffffffffffffff16815260200190815260200160002060008282540192505081905550816002600083815260200190815260200160002060006101000a81548173ffffffffffffffffffffffffffffffffffffffff021916908373ffffffffffffffffffffffffffffffffffffffff160217905550808273ffffffffffffffffffffffffffffffffffffffff168473ffffffffffffffffffffffffffffffffffffffff167fddf252ad1be2c89b69c2b068fc378daa952ba7f163c4a11628f55a4df523b3ef60405160405180910390a461213d8383836001612970565b505050565b600081600001549050919050565b6001816000016000828254019250508190555050565b600073ffffffffffffffffffffffffffffffffffffffff168273ffffffffffffffffffffffffffffffffffffffff16036121d5576040517f08c379a00000000000000000000000000000000000000000000000000000000081526004016121cc90613f2f565b60405180910390fd5b6121de81612929565b1561221e576040517f08c379a000000000000000000000000000000000000000000000000000000000815260040161221590613f9b565b60405180910390fd5b61222c60008383600161296a565b61223581612929565b15612275576040517f08c379a000000000000000000000000000000000000000000000000000000000815260040161226c90613f9b565b60405180910390fd5b6001600360008473ffffffffffffffffffffffffffffffffffffffff1673ffffffffffffffffffffffffffffffffffffffff16815260200190815260200160002060008282540192505081905550816002600083815260200190815260200160002060006101000a81548173ffffffffffffffffffffffffffffffffffffffff021916908373ffffffffffffffffffffffffffffffffffffffff160217905550808273ffffffffffffffffffffffffffffffffffffffff16600073ffffffffffffffffffffffffffffffffffffffff167fddf252ad1be2c89b69c2b068fc378daa952ba7f163c4a11628f55a4df523b3ef60405160405180910390a461237f600083836001612970565b5050565b61238c82612929565b6123cb576040517f08c379a00000000000000000000000000000000000000000000000000000000081526004016123c29061402d565b60405180910390fd5b806006600084815260200190815260200160002090816123eb91906141f9565b507ff8e1a15aba9398e019f0b49df1a4fde98ee17ae345cb5f6b5e2c27f5033e8ce78260405161241b91906133b1565b60405180910390a15050565b6040518060a001604052808281526020013373ffffffffffffffffffffffffffffffffffffffff1681526020013073ffffffffffffffffffffffffffffffffffffffff16815260200142815260200160001515815250600f60008381526020019081526020016000206000820151816000015560208201518160010160006101000a81548173ffffffffffffffffffffffffffffffffffffffff021916908373ffffffffffffffffffffffffffffffffffffffff16021790555060408201518160020160006101000a81548173ffffffffffffffffffffffffffffffffffffffff021916908373ffffffffffffffffffffffffffffffffffffffff1602179055506060820151816003015560808201518160040160006101000a81548160ff021916908315150217905550905050612560333083611e49565b807f7d13d9c1f40780d58d02bd1ebd99f5e78d97e0762d439c82e799521b856c3c38333042600060405161259794939291906142cb565b60405180910390a250565b60006002600083815260200190815260200160002060009054906101000a900473ffffffffffffffffffffffffffffffffffffffff169050919050565b8173ffffffffffffffffffffffffffffffffffffffff168373ffffffffffffffffffffffffffffffffffffffff160361264d576040517f08c379a00000000000000000000000000000000000000000000000000000000081526004016126449061435c565b60405180910390fd5b80600560008573ffffffffffffffffffffffffffffffffffffffff1673ffffffffffffffffffffffffffffffffffffffff16815260200190815260200160002060008473ffffffffffffffffffffffffffffffffffffffff1673ffffffffffffffffffffffffffffffffffffffff16815260200190815260200160002060006101000a81548160ff0219169083151502179055508173ffffffffffffffffffffffffffffffffffffffff168373ffffffffffffffffffffffffffffffffffffffff167f17307eab39ab6107e8899845ad3d59bd9653f200f220920489ca2b5937696c318360405161273e9190612e73565b60405180910390a3505050565b612756848484611e49565b61276284848484612976565b6127a1576040517f08c379a0000000000000000000000000000000000000000000000000000000008152600401612798906143ee565b60405180910390fd5b50505050565b61283d816040516024016127bb91906133b1565b6040516020818303038152906040527ff82c50f1000000000000000000000000000000000000000000000000000000007bffffffffffffffffffffffffffffffffffffffffffffffffffffffff19166020820180517bffffffffffffffffffffffffffffffffffffffffffffffffffffffff8381831617835250505050612afd565b50565b606060405180602001604052806000815250905090565b606061286282611ca8565b600061286c612840565b9050600081511161288c57604051806020016040528060008152506128b7565b8061289684612b1e565b6040516020016128a7929190613d9b565b6040516020818303038152906040525b915050919050565b60007f01ffc9a7000000000000000000000000000000000000000000000000000000007bffffffffffffffffffffffffffffffffffffffffffffffffffffffff1916827bffffffffffffffffffffffffffffffffffffffffffffffffffffffff1916149050919050565b60008073ffffffffffffffffffffffffffffffffffffffff1661294b836125a2565b73ffffffffffffffffffffffffffffffffffffffff1614159050919050565b50505050565b50505050565b60006129978473ffffffffffffffffffffffffffffffffffffffff16612bec565b15612af0578373ffffffffffffffffffffffffffffffffffffffff1663150b7a026129c0611cf3565b8786866040518563ffffffff1660e01b81526004016129e29493929190614463565b6020604051808303816000875af1925050508015612a1e57506040513d601f19601f82011682018060405250810190612a1b91906144c4565b60015b612aa0573d8060008114612a4e576040519150601f19603f3d011682016040523d82523d6000602084013e612a53565b606091505b506000815103612a98576040517f08c379a0000000000000000000000000000000000000000000000000000000008152600401612a8f906143ee565b60405180910390fd5b805181602001fd5b63150b7a0260e01b7bffffffffffffffffffffffffffffffffffffffffffffffffffffffff1916817bffffffffffffffffffffffffffffffffffffffffffffffffffffffff191614915050612af5565b600190505b949350505050565b60006a636f6e736f6c652e6c6f679050600080835160208501845afa505050565b606060006001612b2d84612c0f565b01905060008167ffffffffffffffff811115612b4c57612b4b61322e565b5b6040519080825280601f01601f191660200182016040528015612b7e5781602001600182028036833780820191505090505b509050600082602001820190505b600115612be1578080600190039150507f3031323334353637383961626364656600000000000000000000000000000000600a86061a8153600a8581612bd557612bd46144f1565b5b04945060008503612b8c575b819350505050919050565b6000808273ffffffffffffffffffffffffffffffffffffffff163b119050919050565b600080600090507a184f03e93ff9f4daa797ed6e38ed64bf6a1f0100000000000000008310612c6d577a184f03e93ff9f4daa797ed6e38ed64bf6a1f0100000000000000008381612c6357612c626144f1565b5b0492506040810190505b6d04ee2d6d415b85acef81000000008310612caa576d04ee2d6d415b85acef81000000008381612ca057612c9f6144f1565b5b0492506020810190505b662386f26fc100008310612cd957662386f26fc100008381612ccf57612cce6144f1565b5b0492506010810190505b6305f5e1008310612d02576305f5e1008381612cf857612cf76144f1565b5b0492506008810190505b6127108310612d27576127108381612d1d57612d1c6144f1565b5b0492506004810190505b60648310612d4a5760648381612d4057612d3f6144f1565b5b0492506002810190505b600a8310612d59576001810190505b80915050919050565b6040518060a0016040528060008152602001600073ffffffffffffffffffffffffffffffffffffffff168152602001600073ffffffffffffffffffffffffffffffffffffffff168152602001600081526020016000151581525090565b6000604051905090565b600080fd5b600080fd5b60007fffffffff0000000000000000000000000000000000000000000000000000000082169050919050565b612e0881612dd3565b8114612e1357600080fd5b50565b600081359050612e2581612dff565b92915050565b600060208284031215612e4157612e40612dc9565b5b6000612e4f84828501612e16565b91505092915050565b60008115159050919050565b612e6d81612e58565b82525050565b6000602082019050612e886000830184612e64565b92915050565b600081519050919050565b600082825260208201905092915050565b60005b83811015612ec8578082015181840152602081019050612ead565b60008484015250505050565b6000601f19601f8301169050919050565b6000612ef082612e8e565b612efa8185612e99565b9350612f0a818560208601612eaa565b612f1381612ed4565b840191505092915050565b60006020820190508181036000830152612f388184612ee5565b905092915050565b6000819050919050565b612f5381612f40565b8114612f5e57600080fd5b50565b600081359050612f7081612f4a565b92915050565b600060208284031215612f8c57612f8b612dc9565b5b6000612f9a84828501612f61565b91505092915050565b600073ffffffffffffffffffffffffffffffffffffffff82169050919050565b6000612fce82612fa3565b9050919050565b612fde81612fc3565b82525050565b6000602082019050612ff96000830184612fd5565b92915050565b61300881612fc3565b811461301357600080fd5b50565b60008135905061302581612fff565b92915050565b6000806040838503121561304257613041612dc9565b5b600061305085828601613016565b925050602061306185828601612f61565b9150509250929050565b60008060006060848603121561308457613083612dc9565b5b600061309286828701613016565b93505060206130a386828701613016565b92505060406130b486828701612f61565b9150509250925092565b600081519050919050565b600082825260208201905092915050565b6000819050602082019050919050565b6130f381612f40565b82525050565b61310281612fc3565b82525050565b61311181612e58565b82525050565b60a08201600082015161312d60008501826130ea565b50602082015161314060208501826130f9565b50604082015161315360408501826130f9565b50606082015161316660608501826130ea565b5060808201516131796080850182613108565b50505050565b600061318b8383613117565b60a08301905092915050565b6000602082019050919050565b60006131af826130be565b6131b981856130c9565b93506131c4836130da565b8060005b838110156131f55781516131dc888261317f565b97506131e783613197565b9250506001810190506131c8565b5085935050505092915050565b6000602082019050818103600083015261321c81846131a4565b905092915050565b600080fd5b600080fd5b7f4e487b7100000000000000000000000000000000000000000000000000000000600052604160045260246000fd5b61326682612ed4565b810181811067ffffffffffffffff821117156132855761328461322e565b5b80604052505050565b6000613298612dbf565b90506132a4828261325d565b919050565b600067ffffffffffffffff8211156132c4576132c361322e565b5b6132cd82612ed4565b9050602081019050919050565b82818337600083830152505050565b60006132fc6132f7846132a9565b61328e565b90508281526020810184848401111561331857613317613229565b5b6133238482856132da565b509392505050565b600082601f8301126133405761333f613224565b5b81356133508482602086016132e9565b91505092915050565b60006020828403121561336f5761336e612dc9565b5b600082013567ffffffffffffffff81111561338d5761338c612dce565b5b6133998482850161332b565b91505092915050565b6133ab81612f40565b82525050565b60006020820190506133c660008301846133a2565b92915050565b6000602082840312156133e2576133e1612dc9565b5b60006133f084828501613016565b91505092915050565b61340281612e58565b811461340d57600080fd5b50565b60008135905061341f816133f9565b92915050565b6000806040838503121561343c5761343b612dc9565b5b600061344a85828601613016565b925050602061345b85828601613410565b9150509250929050565b600067ffffffffffffffff8211156134805761347f61322e565b5b61348982612ed4565b9050602081019050919050565b60006134a96134a484613465565b61328e565b9050828152602081018484840111156134c5576134c4613229565b5b6134d08482856132da565b509392505050565b600082601f8301126134ed576134ec613224565b5b81356134fd848260208601613496565b91505092915050565b600080600080608085870312156135205761351f612dc9565b5b600061352e87828801613016565b945050602061353f87828801613016565b935050604061355087828801612f61565b925050606085013567ffffffffffffffff81111561357157613570612dce565b5b61357d878288016134d8565b91505092959194509250565b600080604083850312156135a05761359f612dc9565b5b60006135ae85828601613016565b92505060206135bf85828601613016565b9150509250929050565b7f4e487b7100000000000000000000000000000000000000000000000000000000600052602260045260246000fd5b6000600282049050600182168061361057607f821691505b602082108103613623576136226135c9565b5b50919050565b7f4552433732313a20617070726f76616c20746f2063757272656e74206f776e6560008201527f7200000000000000000000000000000000000000000000000000000000000000602082015250565b6000613685602183612e99565b915061369082613629565b604082019050919050565b600060208201905081810360008301526136b481613678565b9050919050565b7f4552433732313a20617070726f76652063616c6c6572206973206e6f7420746f60008201527f6b656e206f776e6572206f7220617070726f76656420666f7220616c6c000000602082015250565b6000613717603d83612e99565b9150613722826136bb565b604082019050919050565b600060208201905081810360008301526137468161370a565b9050919050565b7f4552433732313a2063616c6c6572206973206e6f7420746f6b656e206f776e6560008201527f72206f7220617070726f76656400000000000000000000000000000000000000602082015250565b60006137a9602d83612e99565b91506137b48261374d565b604082019050919050565b600060208201905081810360008301526137d88161379c565b9050919050565b7f4e487b7100000000000000000000000000000000000000000000000000000000600052601160045260246000fd5b600061381982612f40565b915061382483612f40565b925082820190508082111561383c5761383b6137df565b5b92915050565b600061384d82612f40565b91507fffffffffffffffffffffffffffffffffffffffffffffffffffffffffffffffff820361387f5761387e6137df565b5b600182019050919050565b7f4e487b7100000000000000000000000000000000000000000000000000000000600052603260045260246000fd5b7f41646472657373206973206e6f7420746865206f776e65720000000000000000600082015250565b60006138ef601883612e99565b91506138fa826138b9565b602082019050919050565b6000602082019050818103600083015261391e816138e2565b9050919050565b7f56616c756520686967686572207468616e2062616c616e63652e000000000000600082015250565b600061395b601a83612e99565b915061396682613925565b602082019050919050565b6000602082019050818103600083015261398a8161394e565b9050919050565b600081905092915050565b50565b60006139ac600083613991565b91506139b78261399c565b600082019050919050565b60006139cd8261399f565b9150819050919050565b7f54686572652077617320616e206572726f722100000000000000000000000000600082015250565b6000613a0d601383612e99565b9150613a18826139d7565b602082019050919050565b60006020820190508181036000830152613a3c81613a00565b9050919050565b7f4163636f756e74206e6f74207375627363726962656400000000000000000000600082015250565b6000613a79601683612e99565b9150613a8482613a43565b602082019050919050565b60006020820190508181036000830152613aa881613a6c565b9050919050565b7f57726f6e672076616c75652e0000000000000000000000000000000000000000600082015250565b6000613ae5600c83612e99565b9150613af082613aaf565b602082019050919050565b60006020820190508181036000830152613b1481613ad8565b9050919050565b6000604082019050613b3060008301856133a2565b613b3d6020830184612fd5565b9392505050565b7f4552433732313a20696e76616c696420746f6b656e2049440000000000000000600082015250565b6000613b7a601883612e99565b9150613b8582613b44565b602082019050919050565b60006020820190508181036000830152613ba981613b6d565b9050919050565b7f4552433732313a2061646472657373207a65726f206973206e6f74206120766160008201527f6c6964206f776e65720000000000000000000000000000000000000000000000602082015250565b6000613c0c602983612e99565b9150613c1782613bb0565b604082019050919050565b60006020820190508181036000830152613c3b81613bff565b9050919050565b7f4163636f756e7420616c72656164792073756273637269626564000000000000600082015250565b6000613c78601a83612e99565b9150613c8382613c42565b602082019050919050565b60006020820190508181036000830152613ca781613c6b565b9050919050565b7f546970206d757374206265206174206c65617374203120776569000000000000600082015250565b6000613ce4601a83612e99565b9150613cef82613cae565b602082019050919050565b60006020820190508181036000830152613d1381613cd7565b9050919050565b6000608082019050613d2f60008301876133a2565b613d3c6020830186612fd5565b613d4960408301856133a2565b613d5660608301846133a2565b95945050505050565b600081905092915050565b6000613d7582612e8e565b613d7f8185613d5f565b9350613d8f818560208601612eaa565b80840191505092915050565b6000613da78285613d6a565b9150613db38284613d6a565b91508190509392505050565b7f4552433732313a207472616e736665722066726f6d20696e636f72726563742060008201527f6f776e6572000000000000000000000000000000000000000000000000000000602082015250565b6000613e1b602583612e99565b9150613e2682613dbf565b604082019050919050565b60006020820190508181036000830152613e4a81613e0e565b9050919050565b7f4552433732313a207472616e7366657220746f20746865207a65726f2061646460008201527f7265737300000000000000000000000000000000000000000000000000000000602082015250565b6000613ead602483612e99565b9150613eb882613e51565b604082019050919050565b60006020820190508181036000830152613edc81613ea0565b9050919050565b7f4552433732313a206d696e7420746f20746865207a65726f2061646472657373600082015250565b6000613f19602083612e99565b9150613f2482613ee3565b602082019050919050565b60006020820190508181036000830152613f4881613f0c565b9050919050565b7f4552433732313a20746f6b656e20616c7265616479206d696e74656400000000600082015250565b6000613f85601c83612e99565b9150613f9082613f4f565b602082019050919050565b60006020820190508181036000830152613fb481613f78565b9050919050565b7f45524337323155524953746f726167653a2055524920736574206f66206e6f6e60008201527f6578697374656e7420746f6b656e000000000000000000000000000000000000602082015250565b6000614017602e83612e99565b915061402282613fbb565b604082019050919050565b600060208201905081810360008301526140468161400a565b9050919050565b60008190508160005260206000209050919050565b60006020601f8301049050919050565b600082821b905092915050565b6000600883026140af7fffffffffffffffffffffffffffffffffffffffffffffffffffffffffffffffff82614072565b6140b98683614072565b95508019841693508086168417925050509392505050565b6000819050919050565b60006140f66140f16140ec84612f40565b6140d1565b612f40565b9050919050565b6000819050919050565b614110836140db565b61412461411c826140fd565b84845461407f565b825550505050565b600090565b61413961412c565b614144818484614107565b505050565b5b818110156141685761415d600082614131565b60018101905061414a565b5050565b601f8211156141ad5761417e8161404d565b61418784614062565b81016020851015614196578190505b6141aa6141a285614062565b830182614149565b50505b505050565b600082821c905092915050565b60006141d0600019846008026141b2565b1980831691505092915050565b60006141e983836141bf565b9150826002028217905092915050565b61420282612e8e565b67ffffffffffffffff81111561421b5761421a61322e565b5b61422582546135f8565b61423082828561416c565b600060209050601f8311600181146142635760008415614251578287015190505b61425b85826141dd565b8655506142c3565b601f1984166142718661404d565b60005b8281101561429957848901518255600182019150602085019450602081019050614274565b868310156142b657848901516142b2601f8916826141bf565b8355505b6001600288020188555050505b505050505050565b60006080820190506142e06000830187612fd5565b6142ed6020830186612fd5565b6142fa60408301856133a2565b6143076060830184612e64565b95945050505050565b7f4552433732313a20617070726f766520746f2063616c6c657200000000000000600082015250565b6000614346601983612e99565b915061435182614310565b602082019050919050565b6000602082019050818103600083015261437581614339565b9050919050565b7f4552433732313a207472616e7366657220746f206e6f6e20455243373231526560008201527f63656976657220696d706c656d656e7465720000000000000000000000000000602082015250565b60006143d8603283612e99565b91506143e38261437c565b604082019050919050565b60006020820190508181036000830152614407816143cb565b9050919050565b600081519050919050565b600082825260208201905092915050565b60006144358261440e565b61443f8185614419565b935061444f818560208601612eaa565b61445881612ed4565b840191505092915050565b60006080820190506144786000830187612fd5565b6144856020830186612fd5565b61449260408301856133a2565b81810360608301526144a4818461442a565b905095945050505050565b6000815190506144be81612dff565b92915050565b6000602082840312156144da576144d9612dc9565b5b60006144e8848285016144af565b91505092915050565b7f4e487b7100000000000000000000000000000000000000000000000000000000600052601260045260246000fdfea2646970667358221220765a2203cd52e81ba29620e4bfe4140694ebded15db9f499ff37d52856722f9d64736f6c63430008120033",
  "linkReferences": {},
  "deployedLinkReferences": {}
}